:100000000C94C5000C94300B0C94300B0C94300BFA
:100010000C94300B0C94300B0C94300B0C94300B74
:100020000C94300B0C94300B0C94300B0C94300B64
:100030000C94300B0C94300B0C94300B0C94300B54
:100040000C94300B0C94300B0C94300B0C94300B44
:100050000C94300B0C94300B0C94300B0C94300B34
:100060000C94300B0C94300B0C94300B0C94300B24
:100070000C94300B0C94300B0C94300B0C94300B14
:100080000C94300B0C94300B0C94300B0C941F0818
:100090000C94300B0C94300B0C94300B0C94300BF4
:1000A00030053305360539053C053F054205450554
:1000B00048054B054E0551056F0554056C05870530
:1000C0008A058D0590059305960599059C059F0564
:1000D000A20557055A055D056005630566056905B6
:1000E000A505A805AB05AE05B105B405B705BA056C
:1000F000BD05C005C305C605C905CC05CF05D2059C
:10010000D505D805DB05DE05E105E405E705EA05CB
:10011000ED05F0057205750578057B057E05410640
:10012000F305F605F905FC05FF05020605060806B8
:100130000B060E061106140617061A061D062006E3
:100140002306260629062C062F0632063506380613
:100150003B063E06410681054106840573088D086D
:1001600091088D0891089108730873089108910807
:100170008D0891088D08730828002C00802C002E13
:100180000800166E2E082E92800011241FBECFEF9D
:10019000CDBFDFE3DEBFE8E7F1E041E017C0B59196
:1001A000A59135912591059107FD0CC095918591FB
:1001B000EF01F92FE82F05900D92A217B307D9F799
:1001C000FE0104C01D92A217B307E1F7E938F40756
:0E01D00031F70E94EF000C940E0AF894FFCF56
:1001DE00CF93DF93CDB7DEB7E397CDBFDEBFE0E2BF
:1001EE00F4E081E0818382E08283E0E6F8E08DE650
:1001FE0095E08087918780EC868383E08783E0E0BB
:10020E00F4E080EE81838583E0E4F4E08FE0828386
:10021E0088E0808B818B828B838BE0E8F4E09EE01C
:10022E009283818B89E0828B838B808583FF02C0D2
:10023E0082E001C080E09091880492FD81608093FD
:10024E008B2E7894E0E0F4E08CE08183858388E067
:10025E00828B838BE0EAF8E08BE0868381E08383F8
:10026E0085836CE18CEC93E50E94F10810E06894B4
:10027E00DD24D4F80F2EF0EAEF2EF8E0FF2EF02D4D
:10028E00812F8770806B898F1A8EDB8E63E0CE0193
:10029E0049960E94F1088823D1F08CE30E94A809A8
:1002AE008823A9F080E40E94D709811105C083E05C
:1002BE00D70114968C930BC000E080E00E94D70902
:1002CE00882311F00F5FCAF783E0F70184831F5F65
:1002DE001830B1F680E491E50E94C80984E090E000
:1002EE000E943D0A6E377A45834C954A49F480E068
:1002FE0090E00E943D0A6CA37DA38EA39FA313C022
:10030E0040E050E0BA0180E090E00E94020A4EE721
:10031E005AE563EC75EA84E090E00E94020A1CA2A2
:10032E001DA21EA21FA20E9444061092912E109290
:10033E00902E8CE0FE013196DF01282F1D922A951A
:10034E00E9F73C96DF011D928A95E9F71DA6B1E00B
:10035E00B9ABE1E0E8A318A619A61AA60F2EF0E68F
:10036E002F2EF8E03F2EF02DF0E8FAAB66246394C2
:10037E00712C2CA13DA14EA15FA12C8F3D8F4E8FD4
:10038E005F8F6894552455F86AA27BA270C18A309B
:10039E0009F05EC1E0918A2EF0E0E85FF14D108227
:1003AE0044E050E066EA71E588E09EE20E9448096A
:1003BE00892B09F0FDC080910C2E8B32A1F4809117
:1003CE000D2E813371F580910E2E81112AC08C8DE8
:1003DE009D8DAE8DBF8D0196A11DB11D8C8F9D8FF4
:1003EE00AE8FBF8F2BC18D32A9F480910D2E81332C
:1003FE00F1F480910E2E81111AC02C8D3D8D4E8DF3
:10040E005F8D21503109410951092C8F3D8F4E8F3F
:10041E005F8F14C1882309F411C118AAACE0BEE2A3
:10042E000CC080910D2E18AAADE0BEE206C08091E0
:10043E000D2EA1E0A8ABADE0BEE280538A3008F0ED
:10044E00FDC0EC9180ED8E0F8A3008F074C04D0126
:10045E00FFEF8F1A9F0A10E0B0E0A0E0F0E0D12C81
:10046E00E12CF12C00E05BA6EBABCF2E2EA63FA627
:10047E00212F3B2F4A2F5C2D6D2D7E2D8F2D902FF2
:10048E0001E00E946709322E432E542E652E762EE1
:10049E00B72FA82FF92F02E00E946709A22EB32EC4
:1004AE00C42ED52EE62EF72E082F192F232D342DE0
:1004BE00452D562D672D7B2F8A2F9F2F0E94240AA4
:1004CE00A22EB32EC42ED52EE62EF72E082F192FC0
:1004DE00ABA9EA2FF0E0F0979F2F990F990B2E2FD3
:1004EE003F2F492F592F692F792F892F0E94240AC8
:1004FE00122FB32FA42FC52ED62EE72EF82E092F8E
:10050E00211531054105E0E85E076105710581059C
:10051E00910511F00CF08FC0F40121914F012BAB1E
:10052E00822F80538A3008F4A3CF5BA4E22FF52FDD
:10053E002EA43FA408C010E0B0E0A0E0F0E0D12C63
:10054E00E12CF12C00E0E11179C0E8A9EE23C1F015
:10055E00212F3B2F4A2F5F2F6D2D7E2D8F2D902F0C
:10056E000E94B809122FB32FA42FF52F2115310594
:10057E00410550486F4F7F4F8F4F9F4FA4F45EC081
:10058E00212F3B2F4A2F5F2F6D2D7E2D8F2D902FDC
:10059E002F3F3F4F4F4F5F47610571058105910515
:1005AE0011F00CF04BC01C8FBD8FAE8FFF8F46C06D
:1005BE0044E050E06BEA71E588E09EE20E94480953
:1005CE00892B29F48CE09EE20E944A0737C045E051
:1005DE0050E060EB71E588E09EE20E944809892BAD
:1005EE0029F48DE09EE20E944A0728C044E050E0C4
:1005FE0066EB71E588E09EE20E944809892B29F49A
:10060E008CE09EE20E944A0719C06BEB71E588E010
:10061E009EE20E94F409892B29F48FEB91E50E944A
:10062E004A070CC08091082E882341F088E09EE294
:10063E000E944A0703C05BA42EA43FA410928A2EE8
:10064E00E8E0FEE2DF0120E81D922A95E9F70CC0F2
:10065E00E0918A2EEF3740F491E09E0F90938A2E10
:10066E00F0E0E85FF14D80835A94552059F0D101A6
:10067E0014968C91149788232CF48C918D3009F05C
:10068E0086CEF2CF6AA07BA02CA13DA14EA15FA188
:10069E008C8D9D8DAE8DBF8D281739074A075B0750
:1006AE0021F018A619A691E09AA78091902E882382
:1006BE0009F4BFC181508093902E9091912E992371
:1006CE0051F0811108C080918F2E811109C00E94B6
:1006DE0044061092912E80918F2E882309F45EC0CD
:1006EE00B0908E2ED0908D2E0D2D10E0C801089654
:1006FE008138910528F06894CC24C7F8CD1803C032
:10070E006894CC24C3F88B2D8770806B898F8D2DC8
:10071E008F708A8F8D2D82958F7080618B8F63E0A5
:10072E00CE0149960E94F108882351F18CE30E9474
:10073E00A809882329F180E40E94D709882301F1B2
:10074E00CC20D9F0A0E8BA9E000D111D1124F8019D
:10075E00E050F84D7F010F5F1F4F8FEF8C0D080F8C
:10076E00111D0050184DD7018D917D010E94D709A2
:10077E00882319F00E151F05B1F783E08093A408A6
:10078E00DC0C12F4B394D12CB7E0BB1518F4109214
:10079E008F2E04C0B0928E2ED0928D2EF894009192
:1007AE00882E1091892E1092882E1092892E789470
:1007BE0010161106FCF4C801012E000CAA0BBB0B7F
:1007CE002C8D3D8D4E8D5F8D280F391F4A1F5B1F5F
:1007DE002CA33DA34EA35FA30150110980EC91E51C
:1007EE000E94C80901501109C8F718A619A641E0C0
:1007FE004AA72BC011230CF5C801012E000CAA0B21
:10080E00BB0B2C8D3D8D4E8D5F8D280F391F4A1FD2
:10081E005B1F2CA33DA34EA35FA30F5F1F4F89EC5D
:10082E0091E50E94C8090F5F1F4F01301105B9F7FE
:10083E0018A619A631E03AA708C08C8D9D8DAE8DF5
:10084E00BF8D8CA39DA3AEA3BFA38091880491E01E
:10085E009AA3182F127081FF1AA2A8A1BAA1AB13E6
:10086E001EC0EDA5E43120F4EF5FEDA7AAA31BC0D7
:10087E00F8A129A9F217A9F082ED91E50E94C80905
:10088E00112311F080E301C081E30E942D0A8AED4D
:10089E0091E50E94C80938A139AB3AA304C01DA640
:1008AE0002C049A94AA380EE80930504CE010196A9
:1008BE008C8F9D8FDE011D96A8A3B9A310E080E852
:1008CE00442443942BA63CA6312E19C0B0EEB0930F
:1008DE000504332039F0E1E03E1202C080E403C08B
:1008EE0080E201C08AA92C8D3D8D2C5F3F4F2C8F4D
:1008FE003D8F48A159A14C5F5F4F48A359A38093E8
:10090E00060453E05A95F1F7000090914804892FA0
:10091E008425817091FF826092FF846093FF8860CE
:10092E0008A119A1EC8CFD8C0F2EF0E35F2EF02D9B
:10093E00A12CB12C882E912C0F2EF0E32F2EF02D02
:10094E00230C63010A2C02C0CC0CDD1C0A94E2F7C6
:10095E00C820D920942DC114D10409F490E0F701D8
:10096E008081981303C0D8011C9227C09801D8012A
:10097E008C91843120F48F5F8C938431F0F0D90107
:10098E001C9290838DED91E50E94C809822D0E94E4
:10099E002D0A8CE20E942D0A852D0E942D0A8CE2D2
:1009AE000E942D0ACD2811F480E301C081E30E943C
:1009BE002D0A8AED91E50E94C809BFEFAB1ABB0A5A
:1009CE00EFEFEE1AFE0A0F5F1F4F5394F4E35F1220
:1009DE00B8CF339423E0321279CF2BA43CA480EE0F
:1009EE00809305043AA53323E1F048A559A54E3E60
:1009FE0082E0580728F44F5F5F4F48A759A711C0F0
:100A0E004CA15DA16EA17FA180E090E00E94020A40
:100A1E004EE75AE563EC75EA84E090E00E94020A24
:100A2E001AA6A1E4B3E01197F1F70000BAA1B8A39A
:0C0A3E00A0CC8091912E811146CE4DCEAF
:100A4A0090E0FC01B197EE35F10508F015C1E05BC5
:100A5A00FF4F0C94440A86E596E5089581E596E5EC
:100A6A0008958CE496E5089587E496E5089582E46E
:100A7A0096E508958DE396E5089588E396E5089549
:100A8A0083E396E508958EE296E5089589E296E570
:100A9A00089584E296E508958FE196E508958AE13E
:100AAA0096E5089585E196E5089580E196E508952D
:100ABA008BE096E5089586E096E5089581E096E54F
:100ACA0008958CEF95E5089587EF95E5089582EFEF
:100ADA0095E508958DEE95E5089588EE95E50895D6
:100AEA0083EE95E508958EED95E5089589ED95E5F2
:100AFA00089584ED95E508958FEC95E508958AECBF
:100B0A0095E5089585EC95E5089580EC95E50895B9
:100B1A008BEB95E5089586EB95E5089581EB95E5D0
:100B2A0008958CEA95E5089587EA95E5089582EA9D
:100B3A0095E508958DE995E5089588E995E508957F
:100B4A0083E995E508958EE895E5089589E895E5A0
:100B5A00089584E895E508958FE795E508958AE76D
:100B6A0095E5089585E795E5089580E795E5089563
:100B7A008BE695E5089586E695E5089581E695E57F
:100B8A0008958CE595E5089587E595E5089582E54C
:100B9A0095E508958DE495E5089588E495E5089529
:100BAA0083E495E508958EE395E5089589E395E54F
:100BBA00089584E395E508958FE295E508958AE21C
:100BCA0095E5089585E295E5089580E295E508950D
:100BDA008BE195E5089586E195E5089581E195E52E
:100BEA0008958CE095E5089587E095E5089582E0FB
:100BFA0095E508958DEF94E5089588EF94E50895B5
:100C0A0083EF94E508958EEE94E5089589EE94E5D0
:100C1A00089584EE94E508958FED94E508958AED9C
:100C2A0094E5089585ED94E5089580ED94E5089599
:100C3A008BEC94E5089586EC94E5089581EC94E5AF
:100C4A0008958CEB94E5089587EB94E5089582EB7B
:100C5A0094E508958DEA94E5089588EA94E508955F
:100C6A0083EA94E508958EE994E5089589E994E57F
:0E0C7A00089584E994E508958BE596E50895C4
:100C88004F925F926F927F928F929F92AF92BF9294
:100C9800CF92DF92EF92FF920F931F93CF93DF9340
:100CA8000F92CDB7DEB780E094E0E0E0F8E2DF0134
:100CB8009C011D9221503040E1F70F2EF0E06F2E7D
:100CC800FCE27F2EF02D0F2EF7EC4F2EFDE25F2E6B
:100CD800F02D81E0912C882349F0D301DC90DD20B0
:100CE80009F485C0B7E0B91538F48CC09394E7E0EF
:100CF800E91508F08FC086C083010F5F1F4F73018D
:100D0800A12C05C00F5F1F4FFFEFEF1AFF0A8D2DB3
:100D18000E9425051982AE014F5F5F4F6D2D0E941D
:100D2800240920E2D21621F0BB24B394B80E01C0E6
:100D3800B82EAA2009F482C08B2D90E08A0D911D4F
:100D48008138910530F0939437E0391508F067C081
:100D580059C0D7018C90882D0E9425056C011982F5
:100D6800AE014F5F5F4F682D0E942409B7E0B915A7
:100D780008F475C0AA208CF1E0E28E1671F1F0E853
:100D88009F9ED0011124882311F14A2D50E040384C
:100D98005105E8F49981F601E90FF11D90E020E092
:100DA80030E0BD016050784D6B0161912C0D3D1D07
:100DB800240F351FD9016C939F5F981741F0292F95
:100DC80030E0B901640F751F6038710570F3AB0C22
:100DD800F801D080D11096CF0AC0AB0CD801DC90B6
:100DE800DD2029F0B7E0B91508F08CCF0BC06414EA
:100DF800750441F0E1E46E0E711C80E0F7E0F9152E
:100E080008F069CF81E080938F2E10928E2E109279
:100E18008D2E2AC0D301DC90D1106ECFE8CFF70118
:100E28008080882D0E9425056C011982AE014F5FD4
:100E38005F4F682D0E942409A12C9ECFD7018C906A
:100E4800882D0E9425056C011982AE014F5F5F4F06
:100E5800682D0E942409B7E0B91508F08DCFF80174
:100E68008081882321F2CECF0F90DF91CF911F91FF
:100E78000F91FF90EF90DF90CF90BF90AF909F9031
:0C0E88008F907F906F905F904F900895C6
:100E9400CF92DF92EF92FF921F93CF93DF936C0177
:100EA40060E07CE2DC0110E086C09F016901F90189
:100EB4008191882311F08C37C1F7A9014A1B5B0B80
:100EC400242F7B01442309F448C08C91803269F4B7
:100ED400FD01319680E091E0980F291709F49FC035
:100EE4003191892F3032B9F305C090E003C090E00E
:100EF40001C090E0FD01E40FF11D31978081803243
:100F040009F077C02150921730F081E0890F8217E1
:100F140050F080E03CC0FD01E20FF11D319780816B
:100F2400803281F366C0FD01E90FF11D3081373253
:100F340041F4FD01E20FF11D31973081373271F434
:100F440009C0323259F4FD01E20FF11D31973081AD
:100F5400323221F42150982F01C090E09217B0F45E
:100F6400FB0180E031E0390FAD01490F511DEA0169
:100F7400988140EE490F4F3508F090E291938F5FCE
:100F8400321728F4932F803469F701C080E0F70109
:100F9400E80FF11D10821F5FF6018081811103C0EB
:100FA400183098F01CC0FFEFCF1ADF0A6F5B7F4F39
:100FB4001830A9F0D601E6018881882341F18C37E5
:100FC400F1F096012F5F3F4F71CF81E4819FF001D3
:100FD4001124E050F44D10821F5F1830B9F781E0FE
:100FE4008093912E8EE18093902E1FC020E090E09C
:100FF400B5CF81E0890F821708F0B2CF94CFA60154
:101004004A1B5B0B242F7B01442381F370CFA60181
:101014004A1B5B0B242F7B0141116BCFE7CF8E5F03
:10102400821708F480CF80E0B2CFDF91CF911F9177
:0A103400FF90EF90DF90CF90089539
:10103E001F920F920FB60F9211242F933F938F93FF
:10104E009F93AF93BF93EF93FF93E0E8F4E0818516
:10105E0081878C7009F460C08091880483FF02C080
:10106E0022E001C020E08091880482FF39C0216017
:10107E0037C090918C2E890F80938C2E80918C2E60
:10108E0084309CF08091882E9091892E8F3F9F47BF
:10109E0049F08091882E9091892E01968093882E0A
:1010AE009093892E10928C2E37C080918C2E8D3F6E
:1010BE009CF58091882E9091892E8115904849F04B
:1010CE008091882E9091892E01978093882E9093EF
:1010DE00892E10928C2E20C020938B2E81E0C9CFAA
:1010EE0080918B2E34E0839FC0011124E22FE82BD8
:1010FE008E2FEE0F990BAA0BBB0BFC013197EE3026
:10110E00F10540F4E255FF4F0C94440A20938B2EC8
:10111E008FEFAFCF20938B2EFF91EF91BF91AF91B9
:10112E009F918F913F912F910F900FBE0F901F9017
:02113E00189502
:101140000D0A41546D65676134383039207265612C
:1011500064792E204D415452495820523D50413718
:101160002F5041362F50413520433D5043302E2ED5
:101170005043332C20454E432053573D504531209A
:1011800044543D50453220434C4B3D5045332C2078
:101190004F4C45442054585420525820656E61628B
:1011A0006C65640D0A00454E433D005458543A00A6
:1011B0004F4C45443D005458543D00434C520000B0
:1011C000454E433D2B310D0A00454E433D2D310D1B
:1011D0000A00454E435F53573D000D0A004B4559E9
:0211E0003D00D0
:1011E200EF92FF920F931F93CF93DF938C01E62E22
:1011F2008CE30E94A809F82E8823E9F080E00E947F
:10120200D709F82E81110EC083E08093A40813C081
:1012120089910E94D709811108C093E09093A40894
:10122200F82E09C0E8010E0D111DC017D10781F774
:1012320083E08093A4088F2DDF91CF911F910F91AE
:06124200FF90EF900895FB
:10124800603221F4FA01108283E00895E82FF92F23
:1012580090E030E080E060E02191222339F0311104
:1012680004C0892F692F31E001C0892F9F5F953015
:1012780099F7311104C0FA01108283E00895FA0148
:0812880060838F5F861B08954F
:10129000CF93DF9341155105A9F0DC01FB01EF016C
:1012A0008D91882351F09191992339F04130510566
:1012B00021F041505109891791F390E02881821B58
:0E12C000910902C080E090E0DF91CF91089587
:1012CE000F93083090F0982F872F762F652F542F7D
:1012DE00432F322F22270850F4CF220F331F441FE3
:1012EE00551F661F771F881F991F0A95B2F70F911A
:0212FE00089551
:1013000020E030E0E0EAF8E006C085818C7041F42E
:101310002150310939F0858186FFF7CF81E00895AA
:0813200080E0089580E00895CB
:10132800262FAF93BF93E0E0F0E1328131FDFDCF8E
:10133800DC01A050BC4E2C933DE934BF23E0208350
:081348000196BF91AF910895D9
:10135000880F8093A7080E948009882341F090910C
:10136000A50894FF04C083E08093A40880E008955A
:101370006095709580959095309540955095219504
:101380003F4F4F4F5F4F6F4F7F4F8F4F9F4F08958E
:10139000CF93DF93EC018881882331F021960E945E
:0E13A0002D0A89918111FBCFDF91CF91089525
:1013AE008093A8080E948009882341F09091A50897
:0E13BE0094FF04C083E08093A40880E00895AB
:1013CC00AE2000B0C8001040817FA1A6A83FA4D3D6
:0C13DC0000D580D9F1DA12DB408D14AF8F
:1013E800DC01FB019D912191921303C09111FACF69
:0C13F800292F892F90E0821B9109089595
:101404000396272F0E941A0A0E94190A252F0E9468
:081414001A0A242F0C941A0A95
:10141C00EC010E94350B0E94340BCE010E94360B5E
:06142C00CE010E94320B0C
:10143200262F0E94390A0080021619F00E9495098F
:06144200019701970895D7
:101448002A0D3B1D4C1D5D1D6E1D7F1D801F911FAC
:021458000895F5
:10145A00E0E6F8E0948195FFFDCF80936208089555
:10146A0003D0808199270895FC01E050FC4E08952D
:0E147A000E94390A60817181828193810895F8
:0C148800EE0FFF1F0590F491E02D099479
:051494004464544C44C7
:051499000C5050503C16
:05149E00442810284461
:0514A3003C4030403C1C
:0514A8001C2040201C87
:0514AD003C4040207CE2
:0514B200043F4440204E
:0514B7004854545420CC
:0514BC007C0804040897
:0514C100081414187C62
:0514C6007C1414140861
:0514CB003844444438E0
:0514D0007C0804047813
:0514D5007C04180478FE
:0514DA0000417F40000D
:0514DF007F102844000D
:0514E4002040443D0022
:0514E90000447D4000FD
:0514EE007F08040478F2
:0514F300081454543CF4
:0514F800087E0901025D
:0514FD0038545454189E
:05150200384444487F5D
:051507003844444420BB
:05150C007F4844443853
:05151100205454547841
:0515160061514945434D
:05151B00030478040345
:051520006314081463D0
:051525007F2018207F6B
:05152A001F2040201FFE
:05152F003F4040403F79
:0515340001017F01012F
:0515390046494949315B
:05153E007F0919294698
:051543003E4151215E54
:051548007F09090906FE
:05154D003E4141413E5A
:051552007F0408107F7A
:051557007F020C027F81
:05155C007F404040400B
:051561007F0814224187
:051566002040413F019F
:05156B0000417F41007A
:051570007F0808087F60
:051575003E4149493A26
:05157A007F09090901D1
:05157F007F49494941CC
:051584007F4141221C23
:051589003E414141223A
:05158E007F49494936C8
:051593007E1111117E24
:05159800064949291E6F
:05159D00364949493602
:0515A2000171090503C1
:0515A7003C4A494930F7
:0515AC0027454545390B
:0515B1001814127F1068
:0515B6002141454B310D
:0515BB004261514946A8
:0515C00000427F400025
:0515C5003E5149453EC6
:0515CA000804081008F0
:0515CF0000007F000098
:0515D4004040404040D2
:0515D900040201020400
:0515DE000041417F0007
:0515E3000204081020C5
:0515E800007F414100FD
:0515ED000808080808D1
:0515F2002010080402B6
:0515F700324979413E7C
:0515FC00020151090687
:05160100004122140865
:0516060014141414147B
:05160B0008142241005B
:05161000005636000049
:05161500003636000064
:05161A0000606000000B
:05161F00005030000046
:0516240008083E080863
:0516290014083E081446
:05162E000041221C0038
:05163300001C22410033
:051638000005030000A5
:05163D00364955225062
:0516420023130864629F
:05164700242A7F2A1295
:05164C00147F147F145F
:05165100000700070086
:0516560000005F000030
:05165B0000000000008A
:041660000C940000E6
:041664000E94ED00F3
:021668000895E3
:02166A000895E1
:02166C000895DF
:10166E0052454144590000000000000000000000F7
:10167E00000000000000000000000000000000005C
:10168E00000000000000000000000000000000004C
:10169E00000000000000000000000000000000003C
:1016AE0000544558542046524F4D205043000000E0
:1016BE00000000000000000000000000000000001C
:1016CE00000000000000000000000000000000000C
:1016DE0000000000000000000000000000000000FC
:1016EE0000000000000000000000000000000000EC
:1016FE0000000000000000000000000000000000DC
:10170E0000000000000000000000000000000000CB
:10171E0000000000000000000000000000000000BB
:10172E0000000000000000000000000000000000AB
:10173E00000000000000000000000000000000009B
:10174E00000000000000000000000000000000008B
:10175E00000000000000000000000000000000007B
:10176E00000000000000000000000000000000006B
:10177E00000000000000000000000000000000005B
:10178E00000000000000000000000000000000004B
:10179E00000000000000000000000000000000003B
:1017AE00000000000000000000000000000000002B
:1017BE00000000000000000000000000000000001B
:1017CE00000000000000000000000000000000000B
:1017DE0000000000000000000000000000000000FB
:1017EE0000000000000000000000000000000000EB
:1017FE0000000000000000000000000000000000DB
:10180E0000000000000000000000000000000000CA
:10181E0000000000000000000000000000000000BA
:10182E0000000000000000000000000000000000AA
:10183E00000000000000000000000000000000009A
:10184E00000000000000000000000000000000008A
:10185E00000000000000000000000000000000007A
:08186E00000000000000000072
:02000004008179
:080000000000000000000000F8
:00000001FF
