:100000000C948F000C9414090C9414090C9414098A
:100010000C9414090C9414090C9414090C941409EC
:100020000C9414090C9414090C9414090C941409DC
:100030000C9414090C9414090C9414090C941409CC
:100040000C9414090C9414090C9414090C941409BC
:100050000C9414090C9414090C9414090C941409AC
:100060000C9414090C9414090C9414090C9414099C
:100070000C9414090C9414090C9414090C9414098C
:100080000C9414090C9414090C9414090C9414097C
:100090000C9414090C9414090C9414090C9414096C
:1000A000B0051C061C06B305B605B905BC05BF05A1
:1000B000C205C505C805CB05CE05AD051C061C0649
:1000C0001C061C061C061C06D105D405D705DA053E
:1000D000DD05E005E305E605E905EC05EF05F205BC
:1000E000F505F805FB05FE050106040607060A06E8
:1000F0000D0610061306160618061A0620030C0530
:1001000058030C05580358032003200358035803D1
:100110000C0558030C052003280028198000112421
:100120001FBECFEFCDBFDFE3DEBFE8E1F1E041E08E
:1001300017C0B591A59135912591059107FD0CC08A
:1001400095918591EF01F92FE82F05900D92A21757
:10015000B307D9F7FE0104C01D92A217B307E1F758
:10016000ED31F40731F70E94B9000C947508F8944A
:02017000FFCFBF
:10017200CF93DF93CDB7DEB7CC54D109CDBFDEBF6D
:10018200E0E2F4E091E0918382E08283E0E6F8E04D
:100192002DE635E02087318720EC268323E0278374
:1001A200E0E0F4E0828388E0818BA0E8B4E02EE016
:1001B20012962C93129751968C93519752968C9338
:1001C200529753968C932CE021832583828B838BC9
:1001D200E0EAF8E08BE08683938395836CE18AE919
:1001E20090E50E9438070E94AF0682E09EE40E94DA
:1001F2000E0885E090E00E94A5086E377A45834C90
:10020200954A79F481E090E00E94A5082B013C0117
:1002120080E090E00E949D08A1E081111AC0A0E058
:1002220018C040E050E0BA0181E090E00E94690805
:1002320060E080E090E00E9480084EE75AE563ECBF
:1002420075EA85E090E00E946908412C512C320148
:10025200A0E08091880481FF02C0B2E001C0B0E05A
:100262008091880482FDB16021E028AF26961FAEFE
:10027200269727961FAE279731E02D963FAF2D97F1
:10028200992493941AAE1BAE1CAE0F2EF0E62F2EBD
:10029200F8E03F2EF02DAE01485E5F4F4DAB5EABF6
:1002A2008A2EAB2F21964CAE5DAE6EAE7FAE2197FD
:1002B2008FAA8FC18D3009F07DC1E0911828EE23FD
:1002C20009F487C1F0E0E050F84D1082E0E0F8E276
:1002D20080818335E9F480910128873509F067C16F
:1002E200809102288D3309F062C18091032890ED3C
:1002F200980F923008F05BC190910428911157C178
:10030200F1E0FFAB813309F01FAAB1E0B8AF4FC1F2
:10031200853409F04CC1809101288E3409F047C11F
:1003220080910228833409F042C1809103288D33E1
:1003320009F03DC1809104288B32D9F480910528BF
:100342008133E9F580910628811139C021962CADBF
:100352003DAD4EAD5FAD21972F5F3F4F4F4F5F4F8A
:1003620021962CAF3DAF4EAF5FAF2197B1E0B8AF52
:100372001EC18D32D9F480910528813341F58091D7
:100382000628811124C021962CAD3DAD4EAD5FAD46
:100392002197215031094109510921962CAF3DAFD6
:1003A2004EAF5FAF2197B1E0B8AF01C1882309F426
:1003B200FEC024961FAE2497E4E0F8E210C08091BC
:1003C200052824961FAE2497E5E0F8E208C0809144
:1003D2000528E1E02496EFAF2497E5E0F8E28053A8
:1003E2008A3008F0E4C0908180ED890F8A3008F0ED
:1003F2008FC09F012F5F3F4F23962EAF3FAF2397B2
:10040200B0E0D12CF0E0E0E0E12CF12C00E010E0D3
:1004120025969FAE259728968FAE28972A96AFAF3E
:100422002A97CB2E2C962EAE3FAE2C97392E2C2D02
:100432003D2D4F2F5E2F6E2D7F2D802F912F01E0AE
:100442000E94B50729AF832E942E252EB62FA72FF3
:10045200F82FE92F02E00E94B507A22EB32EC42E78
:10046200D52EE62EF72E082F192F29AD382D492D1E
:10047200522D6B2F7A2F8F2F9E2F0E948B08A22E28
:10048200B32EC42ED52EE62EF72E082F192F432D6C
:1004920050E040535109952F990F990B242F352F76
:1004A200492F592F692F792F892F0E948B08C22E2D
:1004B200D32EF42FE52FE62EF72E082F192F211514
:1004C200310541055048610571058105910511F01D
:1004D2000CF060C02396AEADBFAD23973D9023963E
:1004E200AEAFBFAF239780ED830D8A3008F49FCF64
:1004F20025969FAC259728968FAC28972A96AFAD64
:100502002A97932DBC2D2C962EAC3FAC2C9708C06D
:10051200B0E0D12CF0E0E0E0E12CF12C00E010E0C2
:10052200911145C024962FAD24972223C1F02B2F81
:100532003D2D4F2F5E2F6E2D7F2D802F912F0E94EC
:100542002E08B22FD32EF42FE52F211531054105A8
:1005520050486F4F7F4F8F4F9F4F9CF428C02B2FD7
:100562003D2D4F2F5E2F6E2D7F2D802F912F2F3FF0
:100572003F4F4F4F5F47610571058105910509F0B6
:10058200B4F4BDAFDEAEFFAF2196EFAF2197B1E07D
:10059200B8AF0DC025969FAC259728968FAC2897AB
:1005A2002A96AFAD2A972C962EAC3FAC2C97109280
:1005B20018280FC0E0911828E73148F491E09E0F07
:1005C20090931828F0E0E050F84D808302C010921A
:1005D2001828F101848188230CF002C280818A30BC
:1005E20009F068CE6ACE21962CAD3DAD4EAD5FAD21
:1005F2002197421653066406750649F01AAE1BAEE1
:1006020031E03CAF04C01AAE1BAE41E04CAF80916A
:10061200880481FF05C052E024965FAF249703C08F
:1006220024961FAE24978091880482FFDDC1249610
:100632008FAD2497816024968FAF2497D5C181E036
:1006420026969FAD2697980F26969FAF26979430B1
:10065200ACF021962CAD3DAD4EAD5FAD21972F5F35
:100662003F4F4F4F5F4F21962CAF3DAF4EAF5FAF25
:1006720021978EE39EE40E940E08D4C126963FADD8
:1006820026973D3FA4F421968CAD9DADAEADBFAD96
:1006920021970197A109B10921968CAF9DAFAEAF09
:1006A200BFAF219787E49EE40E940E08BBC18091F0
:1006B200080491E025969FAF2597982F927081FDAF
:1006C20003C025961FAE25972596AFAD25979A12A2
:1006D20039C02796BFAD2797B43140F4BF5F279644
:1006E200BFAF279725969FAE25973DC02D96EFADBC
:1006F2002D979E1659F1911130C081E0FFA9F8277C
:10070200FFAB80E59EE40E940E081FA9111102C0F2
:1007120090E301C091E3D10114968C91149785FF67
:10072200FACF12969C9384E59EE40E940E082D96C1
:100732009FAE2D9725969FAE25971AAE1BAEB1E0C0
:10074200BCAF20C027961FAE27970DC02D96EFADE8
:100752002D972596EFAF259706C02D969FAE2D9724
:1007620025969FAE2597A8ADAA2309F4FFC00AC01B
:1007720026961FAE269727961FAE27971AAE1BAE58
:10078200B1E0BCAF89E0E7E5FEE4DE01119601903D
:100792000D928A95E1F7FE013A968FE0DF011D92F4
:1007A2008A95E9F7BFA9B11107C0EAEFFDE42996DE
:1007B200EEAFFFAF299706C020EF3DE429962EAF9A
:1007C2003FAF29973DAD38AF1EAD8FAC21967FACC0
:1007D20021972196CCACDDACEEACFFAC2197FF0C9F
:1007E200CC08DC2C76016C2C5C2C4C2CC9AE232F53
:1007F200312F482D572D6C2D7C2D8C2D9C2D0E9438
:1008020094087CF40E942E0828AF132F842E752E94
:10081200662E572E482E99AF41E02A964FAF2A975F
:1008220003C02A961FAE2A97CE01899623968EAFD1
:100832009FAF2397912C2C962EAE3FAE2C97392C3E
:10084200912E33940F2EFAE0AF2EF02DB12CC12C45
:10085200D12CE12CF12C00E010E028AD392D482DEF
:10086200572D662D752D842D99AD0E946B07205D45
:100872002396AEADBFAD23972D932396AEAFBFAFF8
:10088200239728AD392D482D572D662D752D842D92
:1008920099AD0E946D0728AF932E842E752E662E79
:1008A200572E482E99AF0E94940829F024F0BCE0FC
:1008B2003B12C7CFD3C0932C2C962EAC3FAC2C97B7
:1008C2002A96EFAD2A97EE2309F4A7C08DE2898F0D
:1008D20081E0A4C091E0980F9A94E9E1F0E0EC0F76
:1008E200FD1FE80FF11DA9E2B0E0AC0FBD1FA90D7D
:1008F200B11D8C918083992019F0892F9F3050F37C
:10090200E9E1F0E0EC0FFD1FE90FF11D1082898D86
:100912008823C1F0DE015A96FE013996AD01319667
:100922009F0121503109D9018C93DA018D91AD01DA
:10093200882351F02DA93EA9E217F30781F7FE01A2
:10094200789602C0FE01399610820E94AF06AE016F
:100952004F5F5F4F60E080E00E943B0529964EADFD
:100962005FAD299760E082E00E943B053CAD3323F6
:1009720019F14AAD5BAD4E3E82E0580728F44F5F55
:100982005F4F4AAF5BAF18C021964CAD5DAD6EAD07
:100992007FAD219781E090E00E9469086FA980E015
:1009A20090E00E9480084EE75AE563EC75EA85E024
:1009B20090E00E9469081CAEA1E4B3E01197F1F740
:1009C200000018AE21964CAC5DAC6EAC7FAC2197AA
:1009D2008FA82496AFAD249725969FAC259762CC1D
:1009E200BFA9B81110CEFFCD14E0A19FF0011124D0
:1009F20024962FAD2497E22B8E2FEE0F990BAA0B84
:100A0200BB0BFC013197EE30F10508F050CEE258F5
:100A1200FF4F0C94AC088FEF13CE80E091105ACFA9
:100A2200982F6ECF8091080431E025963FAF25972D
:100A3200982F927081FD03C025961FAE25972596AB
:100A42004FAD2597941294CEA1E0A8AF26961FAE83
:100A520026971AAE1BAEB1E0BCAF3BCE932C2C96C0
:100A62002EAC3FAC2C972A96EFAD2A97E1112ECFF0
:040A720080E030CF21
:100A76002F923F924F925F926F927F928F929F92A8
:100A8600AF92BF92CF92DF92EF92FF920F931F9396
:100A9600CF93DF9300D00F92CDB7DEB7362E6A0123
:100AA6008770806B8983862F8F708A83862F8295C5
:100AB6008F7080618B8363E0CE0101960E943807B8
:100AC600882309F4E2C08CE30E941E08882309F4F7
:100AD600DCC080E40E943E08282E882349F0D60117
:100AE6008C91882309F4CDC0BAE7B31530F4C9C098
:100AF60083E08093A408822DC8C0EFEFCE1ADE0AE9
:100B06000F2EF2E28F2EF2E59F2EF02D0F2EF4E639
:100B1600AF2EF1E5BF2EF02D0F2EF9E66F2EF1E583
:100B26007F2EF02D0F2EFEE64F2EF1E55F2EF02DD7
:100B3600E82F8FE98E0F8A3108F4E0528E2F90E06D
:100B4600FC01BD97EE32F10508F073C0E05BFF4F84
:100B56000C94AC088DE192E56DC088E192E56AC01F
:100B660083E192E567C08EE092E564C089E092E594
:100B760061C084E092E55EC08FEF91E55BC08AEFCD
:100B860091E558C085EF91E555C080EF91E552C0DB
:100B96008BEE91E54FC086EE91E54CC081EE91E576
:100BA60049C08CED91E546C087ED91E543C082EDE5
:100BB60091E540C08DEC91E53DC088EC91E53AC0E9
:100BC60083EC91E537C08EEB91E534C089EB91E576
:100BD60031C084EB91E52EC08FEA91E52BC08AEAFD
:100BE60091E528C085EA91E525C080EA91E522C015
:100BF6008BE991E51FC086E991E51CC081E991E585
:100C060019C08CE891E516C087E891E513C082E823
:100C160091E510C08DE791E50DC088E791E50AC022
:100C260083E791E507C0C20105C0C30103C0C50142
:100C360001C0C4018C017C01F5E0EF0EF11CD80166
:100C46008D918D010E943E08811104C093E090931E
:100C5600A4081BC00E151F0591F780E00E943E08F0
:100C6600811104C093E09093A4080FC0B6E03B0E38
:100C7600D601ED916D01EE2321F0BAE7B31508F028
:100C860058CF83E08093A408822D2396CDBFDEBF84
:100C9600DF91CF911F910F91FF90EF90DF90CF9052
:100CA600BF90AF909F908F907F906F905F904F9086
:060CB6003F902F9008950D
:100CBC0088249924F401E401B0E49F93AA279A159F
:100CCC008B049C04ED05FE05CF05D007A10798F415
:100CDC00AD2FDC2FCF2FFE2FE92D982C892E982F9E
:100CEC00872F762F652F542F432F322F2227B85062
:100CFC0031F7BF9127C01B2EBF91BB27220F331F8B
:100D0C00441F551F661F771F881F991F881C991C2D
:100D1C00EE1FFF1FCC1FDD1FAA1FBB1F8A149B04D5
:100D2C00EC05FD05CE05DF05A007B10748F08A18D4
:100D3C009B08EC09FD09CE09DF09A00BB10B216062
:100D4C001A94E1F62EF49401AF01BE01CD01000C12
:020D5C000895F8
:100D5E00CF92DF92FF920F931F93CF93DF9300D02A
:100D6E000F92CDB7DEB710E06894FF24F4F80F2E83
:100D7E00F0EACF2EF8E0DF2EF02D812F8770806BFA
:100D8E0089831A82FB8263E0CE0101960E943807A6
:100D9E008823C9F08CE30E941E088823A1F080E40A
:100DAE000E943E08811104C083E0F60184830BC0CB
:100DBE0000E080E00E943E08882311F00F5FCAF722
:100DCE0083E0F60184831F5F1830B9F62396CDBFFA
:100DDE00DEBFDF91CF911F910F91FF90DF90CF90EB
:020DEE00089566
:100DF00053573A20475245454E0053573A205245E3
:100E000044000D0A41546D656761343830392072F1
:100E1000656164792E2053573D5041312C20454E59
:100E2000433D5045312F5045322C204F4C45443DD9
:100E3000493243205041332F5041320D0A00454E74
:100E4000433D2B310D0A00454E433D2D310D0A0027
:100E500053573D000D0A00525820454E433A20009A
:0F0E600000000000000000000000000000000083
:100E7000EF92FF920F931F93CF93DF938C01E62E97
:100E80008CE30E941E08F82E8823E9F080E00E947F
:100E90003E08F82E81110EC083E08093A40813C091
:100EA00089910E943E08811108C093E09093A408A4
:100EB000F82E09C0E8010E0D111DC017D10781F7EA
:100EC00083E08093A4088F2DDF91CF911F910F9124
:060ED000FF90EF90089571
:100ED600689401C0E894F92FF12B12F00C945E0887
:100EE600A0E0B0E0E9E7F7E00C94A207092E05942C
:100EF60022F40E942E08112392F4F0E80F26FFEF49
:100F0600E094F09400951095B094C094D094A19478
:100F1600BF0ACF0ADF0AEF0AFF0A0F0B1F0B0E9458
:100F26005E0607FC0E942E08CDB7DEB7ECE00C94F7
:020F3600D407DE
:100F38002F923F924F925F926F927F928F929F92E1
:100F4800AF92BF92CF92DF92EF92FF920F931F93CF
:100F5800CF93DF93CDB7DEB7CA1BDB0BCDBFDEBFA8
:020F68000994EA
:100F6A000F93083090F0982F872F762F652F542FE4
:100F7A00432F322F22270850F4CF220F331F441F4A
:100F8A00551F661F771F881F991F0A95B2F70F9181
:020F9A000895B8
:100F9C002A88398848885F846E847D848C849B84FD
:100FAC00AA84B984C884DF80EE80FD800C811B810B
:100FBC00AA81B981CE0FD11DCDBFDEBFED01089541
:100FCC0020E030E0E0EAF8E006C085818C7041F466
:100FDC002150310939F0858186FFF7CF81E00895E2
:080FEC0080E0089580E0089503
:100FF400262FAF93BF93E0E0F0E1328131FDFDCFC6
:10100400DC01A050BC4E2C933DE934BF23E0208387
:081014000196BF91AF91089510
:10101C00FC012081222359F0DC011196E0E6F8E076
:10102C00948195FFFDCF22832D912111F9CF089545
:10103C00880F8093A7080E94E607882341F09091BF
:10104C00A50894FF04C083E08093A40880E0089571
:10105C00609570958095909530954095509521951B
:10106C003F4F4F4F5F4F6F4F7F4F8F4F9F4F0895A5
:10107C008093A8080E94E607882341F09091A50868
:0E108C0094FF04C083E08093A40880E00895E0
:10109A00AE2000B0C8001040817FA1A6A83FA4D30B
:0C10AA0000D580D9F1DA12DB408D14AFC4
:1010B600689401C0E8948F929F92CF93DF930E9429
:0C10C6005E06DF91CF919F908F900895FF
:1010D2000396272F0E9481080E948008252F0E94D4
:0810E2008108242F0C94810801
:1010EA00EC010E9419090E941809CE010E941A09EE
:0610FA00CE010E94160960
:10110000262F0E94A1080080021619F00E94FB07FA
:061110000197019708950C
:101116002A0D3B1D4C1D5D1D6E1D7F1D801F911FE1
:0211260008952A
:1011280021153105410551056105710581059105B7
:02113800089518
:10113A0003D0808199270895FC01E050FC4E089560
:0E114A000E94A10860817181828193810895C5
:0C115800EE0FFF1F0590F491E02D0994AC
:05116400615149454303
:051169000304780403FB
:05116E00631408146386
:051173007F2018207F21
:051178001F2040201FB4
:05117D003F4040403F2F
:0511820001017F0101E5
:05118700464949493111
:05118C007F091929464E
:051191003E4151215E0A
:051196007F09090906B4
:05119B003E4141413E10
:0511A0007F0408107F30
:0511A5007F020C027F37
:0511AA007F40404040C1
:0511AF007F081422413D
:0511B4002040413F0155
:0511B90000417F410030
:0511BE007F0808087F16
:0511C3003E4149493ADC
:0511C8007F0909090187
:0511CD007F4949494182
:0511D2007F4141221CD9
:0511D7003E41414122F0
:0511DC007F494949367E
:0511E1007E1111117EDA
:0511E600064949291E25
:0511EB003649494936B8
:0511F000017109050377
:0511F5003C4A494930AD
:0511FA002745454539C1
:0511FF001814127F101E
:051204002141454B31C2
:0512090042615149465D
:05120E0000427F4000DA
:051213003E5149453E7B
:051218000808080808A9
:05121D00003636000060
:051222000000000000C7
:041228000C94000022
:04122C000E94B70065
:0212300008951F
:0212320008951D
:0212340008951B
:02000004008179
:09000000000000000000000000F7
:00000001FF
