:100000000C948F000C94120A0C94120A0C94120A8D
:100010000C94120A0C94120A0C94120A0C94120AF0
:100020000C94120A0C94120A0C94120A0C94120AE0
:100030000C94120A0C94120A0C94120A0C94120AD0
:100040000C94120A0C94120A0C94120A0C94120AC0
:100050000C94120A0C94120A0C94120A0C94120AB0
:100060000C94120A0C94120A0C94120A0C94120AA0
:100070000C94120A0C94120A0C94120A0C94120A90
:100080000C94120A0C94120A0C94120A0C94120A80
:100090000C94120A0C94120A0C94120A0C94120A70
:1000A0009A06060706079D06A006A306A606A90649
:1000B000AC06AF06B206B506B806970606070607F1
:1000C0000607060706070607BB06BE06C106C406E6
:1000D000C706CA06CD06D006D306D606D906DC0664
:1000E000DF06E206E506E806EB06EE06F106F40694
:1000F000F706FA06FD060007020704076D03E90587
:10010000C203E905C203C2036D036D03C203C20348
:10011000E905C203E9056D032800281980001124B0
:100120001FBECFEFCDBFDFE3DEBFE8E1F1E041E08E
:1001300017C0B591A59135912591059107FD0CC08A
:1001400095918591EF01F92FE82F05900D92A21757
:10015000B307D9F7FE0104C01D92A217B307E1F758
:10016000ED31F40731F70E94B9000C946B09F89453
:02017000FFCFBF
:10017200CF93DF93CDB7DEB7C756D109CDBFDEBF70
:10018200E0E2F4E091E0918382E08283E0E6F8E04D
:100192002DE635E02087318780EC868383E08783F4
:1001A200E0E0F4E080EE81838583A0E4B4E08FE0B8
:1001B20012968C93129788E050968C935097519692
:1001C2008C93519752968C93529753968C93A0E8A6
:1001D200B4E02EE012962C93129751968C9351977D
:1001E20052968C93529753968C932CE021832583BD
:1001F200828B838BE0EAF8E08BE08683938395839E
:100202006CE186E892E50E942F080E94E60784E4EA
:100212009FE40E94250985E090E00E94A3096E37C1
:100222007A45834C954AC1F481E090E00E94A3098B
:1002320065966CAF7DAF8EAF9FAF659780E090E023
:100242000E949B0931E066963FAF6697811121C0FB
:1002520066961FAE66971DC040E050E0BA0181E08D
:1002620090E00E945F0960E080E090E00E947609E1
:100272004EE75AE563EC75EA85E090E00E945F097B
:1002820065961CAE1DAE1EAE1FAE659766961FAE7E
:1002920066978CE0FE013196DF01282F1D922A9588
:1002A200E9F73C96DF011D928A95E9F7809188046F
:1002B20081FF04C06894442441F801C0412C80911C
:1002C200880482FF03C0B42DB1604B2EE1E06A9630
:1002D200EFAF6A97A2961FAEA29768961EAE1FAEA8
:1002E200689769961FAE699766246394712C9E0184
:1002F200205D3F4F2F962EAF3FAF2F97542C659620
:100302008CAD9DADAEADBFAD65976F968CAF9DAF19
:10031200AEAFBFAF6F9766969FAC66970F2EF4E0B5
:100322002F2EF8E23F2EF02DA5E0B8E2A4962EAED5
:100332003FAEA497352CA196AEAFBFAFA197619601
:100342006EAE7FAE619782C18D3009F070C1E091CF
:100352001828EE2309F47AC1F0E0E050F84D10823B
:10036200A0E0B8E28C918335F9F4809101288735B9
:1003720009F05AC1809102288D3309F055C180914C
:10038200032890ED980F923008F04EC19091042806
:1003920091114AC199249394813309F0912CB1E0CF
:1003A2006A96BFAF6A9740C1853409F03DC180911A
:1003B20001288E3409F038C180910228833409F073
:1003C20033C1809103288D3309F02EC18091042816
:1003D2008B32F1F480910528813309F042C080917B
:1003E200062881113EC06F962CAD3DAD4EAD5FAD7E
:1003F2006F972F5F3F4F4F4F5F4F6F962CAF3DAFC1
:100402004EAF5FAF6F9731E06A963FAF6A970CC10C
:100412008D32E1F480910528813369F580910628B7
:10042200811129C06F968CAD9DADAEADBFAD6F97FA
:100432000197A109B1096F968CAF9DAFAEAFBFAF67
:100442006F9791E06A969FAF6A97EEC0882309F48E
:10045200EBC0A5961FAEA597A496EEADFFADA497EF
:1004620014C080910528A5961FAEA597A196EEAD62
:10047200FFADA1970AC080910528A1E0A596AFAF74
:10048200A597A196EEADFFADA19780538A3008F0F3
:10049200CBC0B08180ED8B0F8A3008F078C03F016D
:1004A2002FEF621A720A00E010E0F0E0E0E0C12CE7
:1004B200D12CE12CF12CA6969FAEA697A896BFAFA1
:1004C200A897202F312F4F2F5E2F6C2D7D2D8E2D33
:1004D2009F2D01E00E94AC08222E432E542E852E21
:1004E200962EA72FF82FE92F02E00E94AC08A22E29
:1004F200B32EC42ED52EE62EF72E082F192F222D1D
:10050200342D452D582D692D7A2F8F2F9E2F0E9425
:100512008109A22EB32EC42ED52EE62EF72E082F39
:10052200192FA896AFADA8974A2F50E04053510912
:10053200952F990F990B242F352F492F592F692F5A
:10054200792F892F0E948109022F132FF42FE52F73
:10055200C62ED72EE82EF92E211531054105504819
:10056200610571058105910511F00CF05AC0D301A6
:100572002D913D01A8962FAFA897822F80538A30E4
:1005820008F49FCFA6969FACA697B22F08C000E0B2
:1005920010E0F0E0E0E0C12CD12CE12CF12CB11103
:1005A20043C0A596AFADA597AA23C1F0202F312F46
:1005B2004F2F5E2F6C2D7D2D8E2D9F2D0E941509A4
:1005C200022F132FF42FE52F211531054105504835
:1005D2006F4F7F4F8F4F9F4F9CF426C0202F312F9C
:1005E2004F2F5E2F6C2D7D2D8E2D9F2D2F3F3F4F38
:1005F2004F4F5F47610571058105910509F0A4F42C
:100602006C960FAF6C976D961FAF6D976E96FFAF9E
:100612006E976F96EFAF6F97B1E06A96BFAF6A972A
:1006220003C0A6969FACA697109218280FC0E0911F
:100632001828E73148F491E09E0F90931828F0E0D3
:10064200E050F84D808302C010921828809164080F
:1006520088230CF09BC2E0E6F8E080818A3009F042
:1006620073CE75CE6F962CAD3DAD4EAD5FAD6F972F
:1006720065968CAD9DADAEADBFAD659728173907B8
:100682004A075B0789F068961EAE1FAE689791E035
:1006920069969FAF699708C068961EAE1FAE6897AD
:1006A200A1E06996AFAF69978091880481FF05C088
:1006B200B2E0A096BFAFA09703C0A0961FAEA097CE
:1006C2008091880482FF6DC2A096EFADA097E16091
:1006D200A096EFAFA09765C281E0A296FFADA29768
:1006E200F80FA296FFAFA297F43024F16F962CADCB
:1006F2003DAD4EAD5FAD6F972F5F3F4F4F4F5F4F99
:100702006F962CAF3DAF4EAF5FAF6F9785E99FE419
:100712000E94250931E06A963FAF6A97A2961FAE02
:10072200A29768961EAE1FAE689741E069964FAFDA
:10073200699727C0A2965FADA2975D3F14F56F96A9
:100742008CAD9DADAEADBFAD6F970197A109B1095B
:100752006F968CAF9DAFAEAFBFAF6F978EE99FE440
:100762000E94250991E06A969FAF6A97A2961FAEF2
:10077200A29768961EAE1FAE6897A1E06996AFAFCA
:10078200699780EE809305048E010F5F1F4F1E0153
:10079200BDE02B0E311C66969FAE6697912C80E8C9
:1007A20088248394280113C0E0EEE0930504992085
:1007B20039F0F1E09F1202C080E403C080E201C080
:1007C20080E824E0420E511C34E0230E311C809359
:1007D200060443E04A95F1F7000090914804892FFE
:1007E2008825817091FF826092FF846093FF886008
:1007F2007101520100E010E0C82ED12C50E3590DD6
:1008020060965FAF6097C301002E02C0880F991FE8
:100812000A94E2F78C219D21382D009709F430E0EB
:10082200F5012081321303C0D7011C923DC0A701FC
:10083200D7012C91243120F42F5F2C932431A0F185
:10084200DA011C923083892B09F4D9C19110C2C1FB
:100852000111C0C16696BFAD6697B8256696BFAF57
:10086200669787EA9FE40E9425096696EFAD669730
:10087200E11102C080E301C081E30E9493098BEA87
:100882009FE40E9425096A968FAE6A9768961EAE0B
:100892001FAE689769968FAE69979CC10E949309B3
:1008A2008BEA9FE40E9425090F5F1F4FFFEFAF1AEB
:1008B200BF0A2FEFE21AF20A0430110509F0A3CFA2
:1008C200939433E0931270CF80EE809305046A967E
:1008D2004FAD6A97442309F415C189E0E3EBFFE4C5
:1008E200DE01599601900D928A95E1F7FE01B296CA
:1008F2008FE0DF011D928A95E9F76696BFAD669794
:10090200B11107C0ECE3FFE4A496EEAFFFAFA497EA
:1009120006C022E33FE4A4962EAF3FAFA4976C96A5
:100922003FAD6C9760963FAF60976D961FAD6D9728
:100932006E968FAC6E976F965FAC6F976F96CCACDE
:10094200DDACEEACFFAC6F97FF0CCC08DC2C760173
:100952004C2C3C2C2C2C6296CFAE6297232F312F3D
:10096200482D552D6C2D7C2D8C2D9C2D0E948A0995
:100972009CF40E94150960962FAF6097132F842E66
:10098200552E462E372E282E62969FAF629741E053
:10099200A5964FAFA59703C0A5961FAEA597CE010A
:1009A2008F5B9F4F6B968EAF9FAF6B97912CA796E5
:1009B2006EAE7FAEA797792C912E73940F2EFAE02C
:1009C200AF2EF02DB12CC12CD12CE12CF12C00E05A
:1009D20010E060962FAD6097392D482D552D642D6E
:1009E200732D822D62969FAD62970E946208205DF0
:1009F2006B96AEADBFAD6B972D936B96AEAFBFAF9F
:100A02006B9760962FAD6097392D482D552D642D2B
:100A1200732D822D62969FAD62970E946408609644
:100A22002FAF6097932E842E552E462E372E282ECA
:100A320062969FAF62970E948A0929F024F0BCE077
:100A42007B12BBCFF6C0972CA7966EAC7FACA79754
:100A5200A596EFADA597EE2309F4E6C08DE289AB2A
:100A620081E0E3C091E0980F9A94E1E3F0E0EC0FAB
:100A7200FD1FE80FF11DA1E4B0E0AC0FBD1FA90DF1
:100A8200B11D8C918083992019F0892F9F3050F3EA
:100A9200E1E3F0E0EC0FFD1FE90FF11D108229A93F
:100AA2002223C9F0DE01D296FE01B196AD01319644
:100AB200CF010197DC012C93DA012D91AD012223A4
:100AC20061F02F968EAD9FAD2F97E817F90779F752
:100AD200FE01F09602C0FE01B19610820E94E60766
:100AE200AE01475E5F4F60E080E00E942506A4965B
:100AF2004EAD5FADA49760E082E00E9425066A9643
:100B02001FAE6A9769969FAD6997992351F16896CE
:100B1200AEADBFAD6897AE3EE2E0BE0730F41196CF
:100B22006896AEAFBFAF68971CC06F964CAD5DAD17
:100B32006EAD7FAD6F9781E090E00E945F0966968F
:100B42006FAD669780E090E00E9476094EE75AE525
:100B520063EC75EA85E090E00E945F0969961FAE3A
:100B6200699781E493E00197F1F700006F962CAD4D
:100B72003DAD4EAD5FAD6F9765962CAF3DAF4EAFBD
:100B82005FAF6597A0965FACA097B9CB532C6196E7
:100B92006EAC7FAC619766963FAD669793127CCD43
:100BA20061CD44E0549EF0011124A0965FADA09760
:100BB200E52B8E2FEE0F990BAA0BBB0BFC01319785
:100BC200EE30F10508F0DDCDE258FF4F0C94AA0992
:100BD2008FEF83CD8EEA9FE40E94250960968FAD48
:100BE20060970E9493098CE20E94930980E3800F30
:100BF2000E9493098CE20E94930981E34FCE8EEA10
:100C02009FE40E94250960968FAD60970E94930928
:100C12008CE20E94930980E3800F0E9493098CE288
:100C22000E94930980E33ACE80E091101BCF982F67
:100C32002FCF972CA7966EAC7FACA797A5968FADBA
:080C4200A59781110BCF0ECF25
:100C4A002F923F924F925F926F927F928F929F92D2
:100C5A00AF92BF92CF92DF92EF92FF920F931F93C0
:100C6A00CF93DF9300D00F92CDB7DEB7362E6A014D
:100C7A008770806B8983862F8F708A83862F8295EF
:100C8A008F7080618B8363E0CE0101960E942F08EA
:100C9A00882309F4E2C08CE30E940509882309F439
:100CAA00DCC080E40E943409282E882349F0D6014A
:100CBA008C91882309F4CDC0BAE7B31530F4C9C0C2
:100CCA0083E08093A408822DC8C0EFEFCE1ADE0A13
:100CDA000F2EFEE18F2EF4E59F2EF02D0F2EF0E65B
:100CEA00AF2EF3E5BF2EF02D0F2EF5E66F2EF3E5AE
:100CFA007F2EF02D0F2EFAE64F2EF3E55F2EF02D04
:100D0A00E82F8FE98E0F8A3108F4E0528E2F90E097
:100D1A00FC01BD97EE32F10508F073C0E05BFF4FAE
:100D2A000C94AA0989E194E56DC084E194E56AC04E
:100D3A008FE094E567C08AE094E564C085E094E5B5
:100D4A0061C080E094E55EC08BEF93E55BC086EFFF
:100D5A0093E558C081EF93E555C08CEE93E552C0F8
:100D6A0087EE93E54FC082EE93E54CC08DED93E597
:100D7A0049C088ED93E546C083ED93E543C08EEC08
:100D8A0093E540C089EC93E53DC084EC93E53AC015
:100D9A008FEB93E537C08AEB93E534C085EB93E597
:100DAA0031C080EB93E52EC08BEA93E52BC086EA2F
:100DBA0093E528C081EA93E525C08CE993E522C032
:100DCA0087E993E51FC082E993E51CC08DE893E5A6
:100DDA0019C088E893E516C083E893E513C08EE747
:100DEA0093E510C089E793E50DC084E793E50AC04F
:100DFA008FE693E507C0C20105C0C30103C0C50160
:100E0A0001C0C4018C017C01F5E0EF0EF11CD80190
:100E1A008D918D010E943409811104C093E0909351
:100E2A00A4081BC00E151F0591F780E00E94340923
:100E3A00811104C093E09093A4080FC0B6E03B0E62
:100E4A00D601ED916D01EE2321F0BAE7B31508F052
:100E5A0058CF83E08093A408822D2396CDBFDEBFAE
:100E6A00DF91CF911F910F91FF90EF90DF90CF907C
:100E7A00BF90AF909F908F907F906F905F904F90B0
:060E8A003F902F90089537
:100E900088249924F401E401B0E49F93AA279A15C9
:100EA0008B049C04ED05FE05CF05D007A10798F43F
:100EB000AD2FDC2FCF2FFE2FE92D982C892E982FC8
:100EC000872F762F652F542F432F322F2227B8508C
:100ED00031F7BF9127C01B2EBF91BB27220F331FB5
:100EE000441F551F661F771F881F991F881C991C58
:100EF000EE1FFF1FCC1FDD1FAA1FBB1F8A149B0400
:100F0000EC05FD05CE05DF05A007B10748F08A18FE
:100F10009B08EC09FD09CE09DF09A00BB10B21608C
:100F20001A94E1F62EF49401AF01BE01CD01000C3C
:020F3000089522
:100F320053573A20475245454E0053573A2052459F
:100F420044000D0A41546D656761343830392072AE
:100F5200656164792E204D415452495820523D50CA
:100F620041372F5041362F50413520433D504330B9
:100F72002E2E5043332C20454E433D5045312F50A9
:100F820045322C204F4C45443D5041332F50413285
:100F92000D0A00454E433D2B310D0A00454E433D9F
:100FA2002D310D0A0053573D000D0A004B45593DA6
:100FB20000525820454E433A200000000000000035
:090FC20000000000000000000026
:100FCC00CF92DF92FF920F931F93CF93DF9300D0BA
:100FDC000F92CDB7DEB710E06894FF24F4F80F2E13
:100FEC00F0EACF2EF8E0DF2EF02D812F8770806B8A
:100FFC0089831A82FB8263E0CE0101960E942F083E
:10100C008823C9F08CE30E9405098823A1F080E4B1
:10101C000E943409811104C083E0F60184830BC063
:10102C0000E080E00E943409882311F00F5FCAF7BA
:10103C0083E0F60184831F5F1830B9F62396CDBF89
:10104C00DEBFDF91CF911F910F91FF90DF90CF907A
:02105C000895F5
:10105E00EF92FF920F931F93CF93DF938C01E62EA7
:10106E008CE30E940509F82E8823E9F080E00E94A7
:10107E003409F82E81110EC083E08093A40813C0AA
:10108E0089910E943409811108C093E09093A408BD
:10109E00F82E09C0E8010E0D111DC017D10781F7FA
:1010AE0083E08093A4088F2DDF91CF911F910F9134
:0610BE00FF90EF90089581
:1010C400689401C0E894F92FF12B12F00C945409A0
:1010D400A0E0B0E0E0E7F8E00C949908092E05944C
:1010E40022F40E941509112392F4F0E80F26FFEF71
:1010F400E094F09400951095B094C094D094A19489
:10110400BF0ACF0ADF0AEF0AFF0A0F0B1F0B0E9468
:10111400480707FC0E941509CDB7DEB7ECE00C9434
:02112400CB08F6
:101126002F923F924F925F926F927F928F929F92F1
:10113600AF92BF92CF92DF92EF92FF920F931F93DF
:10114600CF93DF93CDB7DEB7CA1BDB0BCDBFDEBFB8
:021156000994FA
:101158000F93083090F0982F872F762F652F542FF4
:10116800432F322F22270850F4CF220F331F441F5A
:10117800551F661F771F881F991F0A95B2F70F9191
:021188000895C8
:10118A002A88398848885F846E847D848C849B840D
:10119A00AA84B984C884DF80EE80FD800C811B811B
:1011AA00AA81B981CE0FD11DCDBFDEBFED01089551
:1011BA0020E030E0E0EAF8E006C085818C7041F476
:1011CA002150310939F0858186FFF7CF81E00895F2
:0811DA0080E0089580E0089513
:1011E200262FAF93BF93E0E0F0E1328131FDFDCFD6
:1011F200DC01A050BC4E2C933DE934BF23E0208398
:081202000196BF91AF91089520
:10120A00880F8093A7080E94DD08882341F09091F7
:10121A00A50894FF04C083E08093A40880E00895A1
:10122A00609570958095909530954095509521954B
:10123A003F4F4F4F5F4F6F4F7F4F8F4F9F4F0895D5
:10124A00CF93DF93EC018881882331F021960E94A5
:0E125A00930989918111FBCFDF91CF91089507
:101268008093A8080E94DD08882341F09091A50882
:0E12780094FF04C083E08093A40880E00895F2
:10128600AE2000B0C8001040817FA1A6A83FA4D31D
:0C12960000D580D9F1DA12DB408D14AFD6
:1012A200689401C0E8948F929F92CF93DF930E943B
:0C12B2004807DF91CF919F908F90089526
:1012BE000396272F0E9477090E947609252F0E94F8
:0812CE007709242F0C94770925
:1012D600EC010E94170A0E94160ACE010E94180A03
:0612E600CE010E94140A73
:1012EC00262F0E949F090080021619F00E94F20816
:0612FC000197019708951F
:101302002A0D3B1D4C1D5D1D6E1D7F1D801F911FF3
:0213120008953C
:1013140021153105410551056105710581059105C9
:0213240008952A
:10132600E0E6F8E0948195FFFDCF8093620808958A
:1013360003D0808199270895FC01E050FC4E089562
:0E1346000E949F0960817181828193810895C8
:0C135400EE0FFF1F0590F491E02D0994AE
:05136000615149454305
:051365000304780403FD
:05136A00631408146388
:05136F007F2018207F23
:051374001F2040201FB6
:051379003F4040403F31
:05137E0001017F0101E7
:05138300464949493113
:051388007F0919294650
:05138D003E4151215E0C
:051392007F09090906B6
:051397003E4141413E12
:05139C007F0408107F32
:0513A1007F020C027F39
:0513A6007F40404040C3
:0513AB007F081422413F
:0513B0002040413F0157
:0513B50000417F410032
:0513BA007F0808087F18
:0513BF003E4149493ADE
:0513C4007F0909090189
:0513C9007F4949494184
:0513CE007F4141221CDB
:0513D3003E41414122F2
:0513D8007F4949493680
:0513DD007E1111117EDC
:0513E200064949291E27
:0513E7003649494936BA
:0513EC00017109050379
:0513F1003C4A494930AF
:0513F6002745454539C3
:0513FB001814127F1020
:051400002141454B31C4
:0514050042615149465F
:05140A0000427F4000DC
:05140F003E5149453E7D
:051414000808080808AB
:05141900003636000062
:05141E000000000000C9
:041424000C94000024
:041428000E94B70067
:02142C00089521
:02142E0008951F
:0214300008951D
:02000004008179
:09000000000000000000000000F7
:00000001FF
